{
  "_format": "hh-sol-artifact-1",
  "contractName": "TouristSafety",
  "sourceName": "contracts/TouristSafety.sol",
  "abi": [
    {
      "inputs": [],
      "stateMutability": "nonpayable",
      "type": "constructor"
    },
    {
      "inputs": [
        {
          "internalType": "address",
          "name": "sender",
          "type": "address"
        },
        {
          "internalType": "uint256",
          "name": "tokenId",
          "type": "uint256"
        },
        {
          "internalType": "address",
          "name": "owner",
          "type": "address"
        }
      ],
      "name": "ERC721IncorrectOwner",
      "type": "error"
    },
    {
      "inputs": [
        {
          "internalType": "address",
          "name": "operator",
          "type": "address"
        },
        {
          "internalType": "uint256",
          "name": "tokenId",
          "type": "uint256"
        }
      ],
      "name": "ERC721InsufficientApproval",
      "type": "error"
    },
    {
      "inputs": [
        {
          "internalType": "address",
          "name": "approver",
          "type": "address"
        }
      ],
      "name": "ERC721InvalidApprover",
      "type": "error"
    },
    {
      "inputs": [
        {
          "internalType": "address",
          "name": "operator",
          "type": "address"
        }
      ],
      "name": "ERC721InvalidOperator",
      "type": "error"
    },
    {
      "inputs": [
        {
          "internalType": "address",
          "name": "owner",
          "type": "address"
        }
      ],
      "name": "ERC721InvalidOwner",
      "type": "error"
    },
    {
      "inputs": [
        {
          "internalType": "address",
          "name": "receiver",
          "type": "address"
        }
      ],
      "name": "ERC721InvalidReceiver",
      "type": "error"
    },
    {
      "inputs": [
        {
          "internalType": "address",
          "name": "sender",
          "type": "address"
        }
      ],
      "name": "ERC721InvalidSender",
      "type": "error"
    },
    {
      "inputs": [
        {
          "internalType": "uint256",
          "name": "tokenId",
          "type": "uint256"
        }
      ],
      "name": "ERC721NonexistentToken",
      "type": "error"
    },
    {
      "inputs": [
        {
          "internalType": "address",
          "name": "owner",
          "type": "address"
        }
      ],
      "name": "OwnableInvalidOwner",
      "type": "error"
    },
    {
      "inputs": [
        {
          "internalType": "address",
          "name": "account",
          "type": "address"
        }
      ],
      "name": "OwnableUnauthorizedAccount",
      "type": "error"
    },
    {
      "anonymous": false,
      "inputs": [
        {
          "indexed": true,
          "internalType": "address",
          "name": "owner",
          "type": "address"
        },
        {
          "indexed": true,
          "internalType": "address",
          "name": "approved",
          "type": "address"
        },
        {
          "indexed": true,
          "internalType": "uint256",
          "name": "tokenId",
          "type": "uint256"
        }
      ],
      "name": "Approval",
      "type": "event"
    },
    {
      "anonymous": false,
      "inputs": [
        {
          "indexed": true,
          "internalType": "address",
          "name": "owner",
          "type": "address"
        },
        {
          "indexed": true,
          "internalType": "address",
          "name": "operator",
          "type": "address"
        },
        {
          "indexed": false,
          "internalType": "bool",
          "name": "approved",
          "type": "bool"
        }
      ],
      "name": "ApprovalForAll",
      "type": "event"
    },
    {
      "anonymous": false,
      "inputs": [
        {
          "indexed": true,
          "internalType": "uint256",
          "name": "incidentId",
          "type": "uint256"
        },
        {
          "indexed": false,
          "internalType": "uint256",
          "name": "touristId",
          "type": "uint256"
        },
        {
          "indexed": true,
          "internalType": "bytes32",
          "name": "aadhaarHash",
          "type": "bytes32"
        }
      ],
      "name": "IncidentRecorded",
      "type": "event"
    },
    {
      "anonymous": false,
      "inputs": [
        {
          "indexed": true,
          "internalType": "address",
          "name": "previousOwner",
          "type": "address"
        },
        {
          "indexed": true,
          "internalType": "address",
          "name": "newOwner",
          "type": "address"
        }
      ],
      "name": "OwnershipTransferred",
      "type": "event"
    },
    {
      "anonymous": false,
      "inputs": [
        {
          "indexed": true,
          "internalType": "address",
          "name": "owner",
          "type": "address"
        },
        {
          "indexed": false,
          "internalType": "uint256",
          "name": "touristId",
          "type": "uint256"
        },
        {
          "indexed": true,
          "internalType": "bytes32",
          "name": "aadhaarHash",
          "type": "bytes32"
        }
      ],
      "name": "TouristRegistered",
      "type": "event"
    },
    {
      "anonymous": false,
      "inputs": [
        {
          "indexed": true,
          "internalType": "address",
          "name": "from",
          "type": "address"
        },
        {
          "indexed": true,
          "internalType": "address",
          "name": "to",
          "type": "address"
        },
        {
          "indexed": true,
          "internalType": "uint256",
          "name": "tokenId",
          "type": "uint256"
        }
      ],
      "name": "Transfer",
      "type": "event"
    },
    {
      "inputs": [
        {
          "internalType": "bytes32",
          "name": "",
          "type": "bytes32"
        }
      ],
      "name": "aadhaarToTouristId",
      "outputs": [
        {
          "internalType": "uint256",
          "name": "",
          "type": "uint256"
        }
      ],
      "stateMutability": "view",
      "type": "function"
    },
    {
      "inputs": [
        {
          "internalType": "address",
          "name": "to",
          "type": "address"
        },
        {
          "internalType": "uint256",
          "name": "tokenId",
          "type": "uint256"
        }
      ],
      "name": "approve",
      "outputs": [],
      "stateMutability": "nonpayable",
      "type": "function"
    },
    {
      "inputs": [
        {
          "internalType": "address",
          "name": "owner",
          "type": "address"
        }
      ],
      "name": "balanceOf",
      "outputs": [
        {
          "internalType": "uint256",
          "name": "",
          "type": "uint256"
        }
      ],
      "stateMutability": "view",
      "type": "function"
    },
    {
      "inputs": [
        {
          "internalType": "uint256",
          "name": "_touristId",
          "type": "uint256"
        }
      ],
      "name": "getAadhaarHash",
      "outputs": [
        {
          "internalType": "bytes32",
          "name": "",
          "type": "bytes32"
        }
      ],
      "stateMutability": "view",
      "type": "function"
    },
    {
      "inputs": [
        {
          "internalType": "uint256",
          "name": "tokenId",
          "type": "uint256"
        }
      ],
      "name": "getApproved",
      "outputs": [
        {
          "internalType": "address",
          "name": "",
          "type": "address"
        }
      ],
      "stateMutability": "view",
      "type": "function"
    },
    {
      "inputs": [
        {
          "internalType": "address",
          "name": "owner",
          "type": "address"
        },
        {
          "internalType": "address",
          "name": "operator",
          "type": "address"
        }
      ],
      "name": "isApprovedForAll",
      "outputs": [
        {
          "internalType": "bool",
          "name": "",
          "type": "bool"
        }
      ],
      "stateMutability": "view",
      "type": "function"
    },
    {
      "inputs": [
        {
          "internalType": "uint256",
          "name": "",
          "type": "uint256"
        }
      ],
      "name": "isIncidentActive",
      "outputs": [
        {
          "internalType": "bool",
          "name": "",
          "type": "bool"
        }
      ],
      "stateMutability": "view",
      "type": "function"
    },
    {
      "inputs": [],
      "name": "name",
      "outputs": [
        {
          "internalType": "string",
          "name": "",
          "type": "string"
        }
      ],
      "stateMutability": "view",
      "type": "function"
    },
    {
      "inputs": [],
      "name": "owner",
      "outputs": [
        {
          "internalType": "address",
          "name": "",
          "type": "address"
        }
      ],
      "stateMutability": "view",
      "type": "function"
    },
    {
      "inputs": [
        {
          "internalType": "uint256",
          "name": "tokenId",
          "type": "uint256"
        }
      ],
      "name": "ownerOf",
      "outputs": [
        {
          "internalType": "address",
          "name": "",
          "type": "address"
        }
      ],
      "stateMutability": "view",
      "type": "function"
    },
    {
      "inputs": [
        {
          "internalType": "uint256",
          "name": "_touristId",
          "type": "uint256"
        }
      ],
      "name": "recordIncident",
      "outputs": [],
      "stateMutability": "nonpayable",
      "type": "function"
    },
    {
      "inputs": [
        {
          "internalType": "bytes32",
          "name": "_aadhaarHash",
          "type": "bytes32"
        }
      ],
      "name": "registerTourist",
      "outputs": [],
      "stateMutability": "nonpayable",
      "type": "function"
    },
    {
      "inputs": [],
      "name": "renounceOwnership",
      "outputs": [],
      "stateMutability": "nonpayable",
      "type": "function"
    },
    {
      "inputs": [
        {
          "internalType": "uint256",
          "name": "_touristId",
          "type": "uint256"
        }
      ],
      "name": "resolveIncident",
      "outputs": [],
      "stateMutability": "nonpayable",
      "type": "function"
    },
    {
      "inputs": [
        {
          "internalType": "address",
          "name": "from",
          "type": "address"
        },
        {
          "internalType": "address",
          "name": "to",
          "type": "address"
        },
        {
          "internalType": "uint256",
          "name": "tokenId",
          "type": "uint256"
        }
      ],
      "name": "safeTransferFrom",
      "outputs": [],
      "stateMutability": "nonpayable",
      "type": "function"
    },
    {
      "inputs": [
        {
          "internalType": "address",
          "name": "from",
          "type": "address"
        },
        {
          "internalType": "address",
          "name": "to",
          "type": "address"
        },
        {
          "internalType": "uint256",
          "name": "tokenId",
          "type": "uint256"
        },
        {
          "internalType": "bytes",
          "name": "data",
          "type": "bytes"
        }
      ],
      "name": "safeTransferFrom",
      "outputs": [],
      "stateMutability": "nonpayable",
      "type": "function"
    },
    {
      "inputs": [
        {
          "internalType": "address",
          "name": "operator",
          "type": "address"
        },
        {
          "internalType": "bool",
          "name": "approved",
          "type": "bool"
        }
      ],
      "name": "setApprovalForAll",
      "outputs": [],
      "stateMutability": "nonpayable",
      "type": "function"
    },
    {
      "inputs": [
        {
          "internalType": "bytes4",
          "name": "interfaceId",
          "type": "bytes4"
        }
      ],
      "name": "supportsInterface",
      "outputs": [
        {
          "internalType": "bool",
          "name": "",
          "type": "bool"
        }
      ],
      "stateMutability": "view",
      "type": "function"
    },
    {
      "inputs": [],
      "name": "symbol",
      "outputs": [
        {
          "internalType": "string",
          "name": "",
          "type": "string"
        }
      ],
      "stateMutability": "view",
      "type": "function"
    },
    {
      "inputs": [
        {
          "internalType": "uint256",
          "name": "tokenId",
          "type": "uint256"
        }
      ],
      "name": "tokenURI",
      "outputs": [
        {
          "internalType": "string",
          "name": "",
          "type": "string"
        }
      ],
      "stateMutability": "view",
      "type": "function"
    },
    {
      "inputs": [
        {
          "internalType": "address",
          "name": "from",
          "type": "address"
        },
        {
          "internalType": "address",
          "name": "to",
          "type": "address"
        },
        {
          "internalType": "uint256",
          "name": "tokenId",
          "type": "uint256"
        }
      ],
      "name": "transferFrom",
      "outputs": [],
      "stateMutability": "nonpayable",
      "type": "function"
    },
    {
      "inputs": [
        {
          "internalType": "address",
          "name": "newOwner",
          "type": "address"
        }
      ],
      "name": "transferOwnership",
      "outputs": [],
      "stateMutability": "nonpayable",
      "type": "function"
    }
  ],
  "bytecode": "0x60806040523480156200001157600080fd5b50336040518060400160405280601081526020017f546f75726973745361666574794e4654000000000000000000000000000000008152506040518060400160405280600381526020017f54534e0000000000000000000000000000000000000000000000000000000000815250816000908162000090919062000472565b508060019081620000a2919062000472565b505050600073ffffffffffffffffffffffffffffffffffffffff168173ffffffffffffffffffffffffffffffffffffffff16036200011a5760006040517f1e4fbdf70000000000000000000000000000000000000000000000000000000081526004016200011191906200059e565b60405180910390fd5b6200012b816200013260201b60201c565b50620005bb565b6000600660009054906101000a900473ffffffffffffffffffffffffffffffffffffffff16905081600660006101000a81548173ffffffffffffffffffffffffffffffffffffffff021916908373ffffffffffffffffffffffffffffffffffffffff1602179055508173ffffffffffffffffffffffffffffffffffffffff168173ffffffffffffffffffffffffffffffffffffffff167f8be0079c531659141344cd1fd0a4f28419497f9722a3daafe3b4186f6b6457e060405160405180910390a35050565b600081519050919050565b7f4e487b7100000000000000000000000000000000000000000000000000000000600052604160045260246000fd5b7f4e487b7100000000000000000000000000000000000000000000000000000000600052602260045260246000fd5b600060028204905060018216806200027a57607f821691505b60208210810362000290576200028f62000232565b5b50919050565b60008190508160005260206000209050919050565b60006020601f8301049050919050565b600082821b905092915050565b600060088302620002fa7fffffffffffffffffffffffffffffffffffffffffffffffffffffffffffffffff82620002bb565b620003068683620002bb565b95508019841693508086168417925050509392505050565b6000819050919050565b6000819050919050565b6000620003536200034d62000347846200031e565b62000328565b6200031e565b9050919050565b6000819050919050565b6200036f8362000332565b620003876200037e826200035a565b848454620002c8565b825550505050565b600090565b6200039e6200038f565b620003ab81848462000364565b505050565b5b81811015620003d357620003c760008262000394565b600181019050620003b1565b5050565b601f8211156200042257620003ec8162000296565b620003f784620002ab565b8101602085101562000407578190505b6200041f6200041685620002ab565b830182620003b0565b50505b505050565b600082821c905092915050565b6000620004476000198460080262000427565b1980831691505092915050565b600062000462838362000434565b9150826002028217905092915050565b6200047d82620001f8565b67ffffffffffffffff81111562000499576200049862000203565b5b620004a5825462000261565b620004b2828285620003d7565b600060209050601f831160018114620004ea5760008415620004d5578287015190505b620004e1858262000454565b86555062000551565b601f198416620004fa8662000296565b60005b828110156200052457848901518255600182019150602085019450602081019050620004fd565b8683101562000544578489015162000540601f89168262000434565b8355505b6001600288020188555050505b505050505050565b600073ffffffffffffffffffffffffffffffffffffffff82169050919050565b6000620005868262000559565b9050919050565b620005988162000579565b82525050565b6000602082019050620005b560008301846200058d565b92915050565b61283780620005cb6000396000f3fe608060405234801561001057600080fd5b50600436106101425760003560e01c80636352211e116100b8578063a22cb4651161007c578063a22cb46514610387578063b88d4fde146103a3578063c87b56dd146103bf578063d653f932146103ef578063e985e9c51461040b578063f2fde38b1461043b57610142565b80636352211e146102e157806370a0823114610311578063715018a6146103415780638da5cb5b1461034b57806395d89b411461036957610142565b806323b872dd1161010a57806323b872dd146102115780632981917c1461022d578063353297f91461025d57806342842e0e1461028d5780634ffe6ae2146102a95780635f2e2a11146102c557610142565b806301ffc9a71461014757806306fdde0314610177578063081812fc14610195578063095ea7b3146101c557806318c14c40146101e1575b600080fd5b610161600480360381019061015c9190611d15565b610457565b60405161016e9190611d5d565b60405180910390f35b61017f610539565b60405161018c9190611e08565b60405180910390f35b6101af60048036038101906101aa9190611e60565b6105cb565b6040516101bc9190611ece565b60405180910390f35b6101df60048036038101906101da9190611f15565b6105e7565b005b6101fb60048036038101906101f69190611f8b565b6105fd565b6040516102089190611fc7565b60405180910390f35b61022b60048036038101906102269190611fe2565b610615565b005b61024760048036038101906102429190611e60565b610717565b6040516102549190612044565b60405180910390f35b61027760048036038101906102729190611e60565b61078c565b6040516102849190611d5d565b60405180910390f35b6102a760048036038101906102a29190611fe2565b6107ac565b005b6102c360048036038101906102be9190611e60565b6107cc565b005b6102df60048036038101906102da9190611f8b565b61086a565b005b6102fb60048036038101906102f69190611e60565b610974565b6040516103089190611ece565b60405180910390f35b61032b6004803603810190610326919061205f565b610986565b6040516103389190611fc7565b60405180910390f35b610349610a40565b005b610353610a54565b6040516103609190611ece565b60405180910390f35b610371610a7e565b60405161037e9190611e08565b60405180910390f35b6103a1600480360381019061039c91906120b8565b610b10565b005b6103bd60048036038101906103b8919061222d565b610b26565b005b6103d960048036038101906103d49190611e60565b610b4b565b6040516103e69190611e08565b60405180910390f35b61040960048036038101906104049190611e60565b610bb4565b005b610425600480360381019061042091906122b0565b610d07565b6040516104329190611d5d565b60405180910390f35b6104556004803603810190610450919061205f565b610d9b565b005b60007f80ac58cd000000000000000000000000000000000000000000000000000000007bffffffffffffffffffffffffffffffffffffffffffffffffffffffff1916827bffffffffffffffffffffffffffffffffffffffffffffffffffffffff1916148061052257507f5b5e139f000000000000000000000000000000000000000000000000000000007bffffffffffffffffffffffffffffffffffffffffffffffffffffffff1916827bffffffffffffffffffffffffffffffffffffffffffffffffffffffff1916145b80610532575061053182610e21565b5b9050919050565b6060600080546105489061231f565b80601f01602080910402602001604051908101604052809291908181526020018280546105749061231f565b80156105c15780601f10610596576101008083540402835291602001916105c1565b820191906000526020600020905b8154815290600101906020018083116105a457829003601f168201915b5050505050905090565b60006105d682610e8b565b506105e082610f13565b9050919050565b6105f982826105f4610f50565b610f58565b5050565b60076020528060005260406000206000915090505481565b600073ffffffffffffffffffffffffffffffffffffffff168273ffffffffffffffffffffffffffffffffffffffff16036106875760006040517f64a0ae9200000000000000000000000000000000000000000000000000000000815260040161067e9190611ece565b60405180910390fd5b600061069b8383610696610f50565b610f6a565b90508373ffffffffffffffffffffffffffffffffffffffff168173ffffffffffffffffffffffffffffffffffffffff1614610711578382826040517f64283d7b00000000000000000000000000000000000000000000000000000000815260040161070893929190612350565b60405180910390fd5b50505050565b60008060001b600960008481526020019081526020016000205403610771576040517f08c379a0000000000000000000000000000000000000000000000000000000008152600401610768906123d3565b60405180910390fd5b60096000838152602001908152602001600020549050919050565b60086020528060005260406000206000915054906101000a900460ff1681565b6107c783838360405180602001604052806000815250610b26565b505050565b6107d4611184565b600115156008600083815260200190815260200160002060009054906101000a900460ff1615151461083b576040517f08c379a000000000000000000000000000000000000000000000000000000000815260040161083290612465565b60405180910390fd5b60006008600083815260200190815260200160002060006101000a81548160ff02191690831515021790555050565b610872611184565b60006007600083815260200190815260200160002054146108c8576040517f08c379a00000000000000000000000000000000000000000000000000000000081526004016108bf906124d1565b60405180910390fd5b600a60008154809291906108db90612520565b91905055506000600a5490506108f1338261120b565b806007600084815260200190815260200160002081905550816009600083815260200190815260200160002081905550813373ffffffffffffffffffffffffffffffffffffffff167fa05194e5286d61581c3cc38e48008f4472857c607c357b2ce43e88fd0ff5ed2b836040516109689190611fc7565b60405180910390a35050565b600061097f82610e8b565b9050919050565b60008073ffffffffffffffffffffffffffffffffffffffff168273ffffffffffffffffffffffffffffffffffffffff16036109f95760006040517f89c62b640000000000000000000000000000000000000000000000000000000081526004016109f09190611ece565b60405180910390fd5b600360008373ffffffffffffffffffffffffffffffffffffffff1673ffffffffffffffffffffffffffffffffffffffff168152602001908152602001600020549050919050565b610a48611184565b610a526000611304565b565b6000600660009054906101000a900473ffffffffffffffffffffffffffffffffffffffff16905090565b606060018054610a8d9061231f565b80601f0160208091040260200160405190810160405280929190818152602001828054610ab99061231f565b8015610b065780601f10610adb57610100808354040283529160200191610b06565b820191906000526020600020905b815481529060010190602001808311610ae957829003601f168201915b5050505050905090565b610b22610b1b610f50565b83836113ca565b5050565b610b31848484610615565b610b45610b3c610f50565b85858585611539565b50505050565b6060610b5682610e8b565b506000610b616116ea565b90506000815111610b815760405180602001604052806000815250610bac565b80610b8b84611701565b604051602001610b9c9291906125a4565b6040516020818303038152906040525b915050919050565b610bbc611184565b600060076000600960008581526020019081526020016000205481526020019081526020016000205403610c25576040517f08c379a0000000000000000000000000000000000000000000000000000000008152600401610c1c90612614565b60405180910390fd5b600015156008600083815260200190815260200160002060009054906101000a900460ff16151514610c8c576040517f08c379a0000000000000000000000000000000000000000000000000000000008152600401610c83906126a6565b60405180910390fd5b60016008600083815260200190815260200160002060006101000a81548160ff0219169083151502179055506009600082815260200190815260200160002054427f23f06fdd98aab60fb98b1780ef4dd58d14b036f786933c6fce4594d43424871c83604051610cfc9190611fc7565b60405180910390a350565b6000600560008473ffffffffffffffffffffffffffffffffffffffff1673ffffffffffffffffffffffffffffffffffffffff16815260200190815260200160002060008373ffffffffffffffffffffffffffffffffffffffff1673ffffffffffffffffffffffffffffffffffffffff16815260200190815260200160002060009054906101000a900460ff16905092915050565b610da3611184565b600073ffffffffffffffffffffffffffffffffffffffff168173ffffffffffffffffffffffffffffffffffffffff1603610e155760006040517f1e4fbdf7000000000000000000000000000000000000000000000000000000008152600401610e0c9190611ece565b60405180910390fd5b610e1e81611304565b50565b60007f01ffc9a7000000000000000000000000000000000000000000000000000000007bffffffffffffffffffffffffffffffffffffffffffffffffffffffff1916827bffffffffffffffffffffffffffffffffffffffffffffffffffffffff1916149050919050565b600080610e97836117cf565b9050600073ffffffffffffffffffffffffffffffffffffffff168173ffffffffffffffffffffffffffffffffffffffff1603610f0a57826040517f7e273289000000000000000000000000000000000000000000000000000000008152600401610f019190611fc7565b60405180910390fd5b80915050919050565b60006004600083815260200190815260200160002060009054906101000a900473ffffffffffffffffffffffffffffffffffffffff169050919050565b600033905090565b610f65838383600161180c565b505050565b600080610f76846117cf565b9050600073ffffffffffffffffffffffffffffffffffffffff168373ffffffffffffffffffffffffffffffffffffffff1614610fb857610fb78184866119d1565b5b600073ffffffffffffffffffffffffffffffffffffffff168173ffffffffffffffffffffffffffffffffffffffff161461104957610ffa60008560008061180c565b6001600360008373ffffffffffffffffffffffffffffffffffffffff1673ffffffffffffffffffffffffffffffffffffffff168152602001908152602001600020600082825403925050819055505b600073ffffffffffffffffffffffffffffffffffffffff168573ffffffffffffffffffffffffffffffffffffffff16146110cc576001600360008773ffffffffffffffffffffffffffffffffffffffff1673ffffffffffffffffffffffffffffffffffffffff168152602001908152602001600020600082825401925050819055505b846002600086815260200190815260200160002060006101000a81548173ffffffffffffffffffffffffffffffffffffffff021916908373ffffffffffffffffffffffffffffffffffffffff160217905550838573ffffffffffffffffffffffffffffffffffffffff168273ffffffffffffffffffffffffffffffffffffffff167fddf252ad1be2c89b69c2b068fc378daa952ba7f163c4a11628f55a4df523b3ef60405160405180910390a4809150509392505050565b61118c610f50565b73ffffffffffffffffffffffffffffffffffffffff166111aa610a54565b73ffffffffffffffffffffffffffffffffffffffff1614611209576111cd610f50565b6040517f118cdaa70000000000000000000000000000000000000000000000000000000081526004016112009190611ece565b60405180910390fd5b565b600073ffffffffffffffffffffffffffffffffffffffff168273ffffffffffffffffffffffffffffffffffffffff160361127d5760006040517f64a0ae920000000000000000000000000000000000000000000000000000000081526004016112749190611ece565b60405180910390fd5b600061128b83836000610f6a565b9050600073ffffffffffffffffffffffffffffffffffffffff168173ffffffffffffffffffffffffffffffffffffffff16146112ff5760006040517f73c6ac6e0000000000000000000000000000000000000000000000000000000081526004016112f69190611ece565b60405180910390fd5b505050565b6000600660009054906101000a900473ffffffffffffffffffffffffffffffffffffffff16905081600660006101000a81548173ffffffffffffffffffffffffffffffffffffffff021916908373ffffffffffffffffffffffffffffffffffffffff1602179055508173ffffffffffffffffffffffffffffffffffffffff168173ffffffffffffffffffffffffffffffffffffffff167f8be0079c531659141344cd1fd0a4f28419497f9722a3daafe3b4186f6b6457e060405160405180910390a35050565b600073ffffffffffffffffffffffffffffffffffffffff168273ffffffffffffffffffffffffffffffffffffffff160361143b57816040517f5b08ba180000000000000000000000000000000000000000000000000000000081526004016114329190611ece565b60405180910390fd5b80600560008573ffffffffffffffffffffffffffffffffffffffff1673ffffffffffffffffffffffffffffffffffffffff16815260200190815260200160002060008473ffffffffffffffffffffffffffffffffffffffff1673ffffffffffffffffffffffffffffffffffffffff16815260200190815260200160002060006101000a81548160ff0219169083151502179055508173ffffffffffffffffffffffffffffffffffffffff168373ffffffffffffffffffffffffffffffffffffffff167f17307eab39ab6107e8899845ad3d59bd9653f200f220920489ca2b5937696c318360405161152c9190611d5d565b60405180910390a3505050565b60008373ffffffffffffffffffffffffffffffffffffffff163b11156116e3578273ffffffffffffffffffffffffffffffffffffffff1663150b7a02868685856040518563ffffffff1660e01b8152600401611598949392919061271b565b6020604051808303816000875af19250505080156115d457506040513d601f19601f820116820180604052508101906115d1919061277c565b60015b611658573d8060008114611604576040519150601f19603f3d011682016040523d82523d6000602084013e611609565b606091505b50600081510361165057836040517f64a0ae920000000000000000000000000000000000000000000000000000000081526004016116479190611ece565b60405180910390fd5b805160208201fd5b63150b7a0260e01b7bffffffffffffffffffffffffffffffffffffffffffffffffffffffff1916817bffffffffffffffffffffffffffffffffffffffffffffffffffffffff1916146116e157836040517f64a0ae920000000000000000000000000000000000000000000000000000000081526004016116d89190611ece565b60405180910390fd5b505b5050505050565b606060405180602001604052806000815250905090565b60606000600161171084611a95565b01905060008167ffffffffffffffff81111561172f5761172e612102565b5b6040519080825280601f01601f1916602001820160405280156117615781602001600182028036833780820191505090505b509050600082602083010190505b6001156117c4578080600190039150507f3031323334353637383961626364656600000000000000000000000000000000600a86061a8153600a85816117b8576117b76127a9565b5b0494506000850361176f575b819350505050919050565b60006002600083815260200190815260200160002060009054906101000a900473ffffffffffffffffffffffffffffffffffffffff169050919050565b80806118455750600073ffffffffffffffffffffffffffffffffffffffff168273ffffffffffffffffffffffffffffffffffffffff1614155b1561197957600061185584610e8b565b9050600073ffffffffffffffffffffffffffffffffffffffff168373ffffffffffffffffffffffffffffffffffffffff16141580156118c057508273ffffffffffffffffffffffffffffffffffffffff168173ffffffffffffffffffffffffffffffffffffffff1614155b80156118d357506118d18184610d07565b155b1561191557826040517fa9fbf51f00000000000000000000000000000000000000000000000000000000815260040161190c9190611ece565b60405180910390fd5b811561197757838573ffffffffffffffffffffffffffffffffffffffff168273ffffffffffffffffffffffffffffffffffffffff167f8c5be1e5ebec7d5bd14f71427d1e84f3dd0314c0f7b2291e5b200ac8c7c3b92560405160405180910390a45b505b836004600085815260200190815260200160002060006101000a81548173ffffffffffffffffffffffffffffffffffffffff021916908373ffffffffffffffffffffffffffffffffffffffff16021790555050505050565b6119dc838383611be8565b611a9057600073ffffffffffffffffffffffffffffffffffffffff168373ffffffffffffffffffffffffffffffffffffffff1603611a5157806040517f7e273289000000000000000000000000000000000000000000000000000000008152600401611a489190611fc7565b60405180910390fd5b81816040517f177e802f000000000000000000000000000000000000000000000000000000008152600401611a879291906127d8565b60405180910390fd5b505050565b600080600090507a184f03e93ff9f4daa797ed6e38ed64bf6a1f0100000000000000008310611af3577a184f03e93ff9f4daa797ed6e38ed64bf6a1f0100000000000000008381611ae957611ae86127a9565b5b0492506040810190505b6d04ee2d6d415b85acef81000000008310611b30576d04ee2d6d415b85acef81000000008381611b2657611b256127a9565b5b0492506020810190505b662386f26fc100008310611b5f57662386f26fc100008381611b5557611b546127a9565b5b0492506010810190505b6305f5e1008310611b88576305f5e1008381611b7e57611b7d6127a9565b5b0492506008810190505b6127108310611bad576127108381611ba357611ba26127a9565b5b0492506004810190505b60648310611bd05760648381611bc657611bc56127a9565b5b0492506002810190505b600a8310611bdf576001810190505b80915050919050565b60008073ffffffffffffffffffffffffffffffffffffffff168373ffffffffffffffffffffffffffffffffffffffff1614158015611ca057508273ffffffffffffffffffffffffffffffffffffffff168473ffffffffffffffffffffffffffffffffffffffff161480611c615750611c608484610d07565b5b80611c9f57508273ffffffffffffffffffffffffffffffffffffffff16611c8783610f13565b73ffffffffffffffffffffffffffffffffffffffff16145b5b90509392505050565b6000604051905090565b600080fd5b600080fd5b60007fffffffff0000000000000000000000000000000000000000000000000000000082169050919050565b611cf281611cbd565b8114611cfd57600080fd5b50565b600081359050611d0f81611ce9565b92915050565b600060208284031215611d2b57611d2a611cb3565b5b6000611d3984828501611d00565b91505092915050565b60008115159050919050565b611d5781611d42565b82525050565b6000602082019050611d726000830184611d4e565b92915050565b600081519050919050565b600082825260208201905092915050565b60005b83811015611db2578082015181840152602081019050611d97565b60008484015250505050565b6000601f19601f8301169050919050565b6000611dda82611d78565b611de48185611d83565b9350611df4818560208601611d94565b611dfd81611dbe565b840191505092915050565b60006020820190508181036000830152611e228184611dcf565b905092915050565b6000819050919050565b611e3d81611e2a565b8114611e4857600080fd5b50565b600081359050611e5a81611e34565b92915050565b600060208284031215611e7657611e75611cb3565b5b6000611e8484828501611e4b565b91505092915050565b600073ffffffffffffffffffffffffffffffffffffffff82169050919050565b6000611eb882611e8d565b9050919050565b611ec881611ead565b82525050565b6000602082019050611ee36000830184611ebf565b92915050565b611ef281611ead565b8114611efd57600080fd5b50565b600081359050611f0f81611ee9565b92915050565b60008060408385031215611f2c57611f2b611cb3565b5b6000611f3a85828601611f00565b9250506020611f4b85828601611e4b565b9150509250929050565b6000819050919050565b611f6881611f55565b8114611f7357600080fd5b50565b600081359050611f8581611f5f565b92915050565b600060208284031215611fa157611fa0611cb3565b5b6000611faf84828501611f76565b91505092915050565b611fc181611e2a565b82525050565b6000602082019050611fdc6000830184611fb8565b92915050565b600080600060608486031215611ffb57611ffa611cb3565b5b600061200986828701611f00565b935050602061201a86828701611f00565b925050604061202b86828701611e4b565b9150509250925092565b61203e81611f55565b82525050565b60006020820190506120596000830184612035565b92915050565b60006020828403121561207557612074611cb3565b5b600061208384828501611f00565b91505092915050565b61209581611d42565b81146120a057600080fd5b50565b6000813590506120b28161208c565b92915050565b600080604083850312156120cf576120ce611cb3565b5b60006120dd85828601611f00565b92505060206120ee858286016120a3565b9150509250929050565b600080fd5b600080fd5b7f4e487b7100000000000000000000000000000000000000000000000000000000600052604160045260246000fd5b61213a82611dbe565b810181811067ffffffffffffffff8211171561215957612158612102565b5b80604052505050565b600061216c611ca9565b90506121788282612131565b919050565b600067ffffffffffffffff82111561219857612197612102565b5b6121a182611dbe565b9050602081019050919050565b82818337600083830152505050565b60006121d06121cb8461217d565b612162565b9050828152602081018484840111156121ec576121eb6120fd565b5b6121f78482856121ae565b509392505050565b600082601f830112612214576122136120f8565b5b81356122248482602086016121bd565b91505092915050565b6000806000806080858703121561224757612246611cb3565b5b600061225587828801611f00565b945050602061226687828801611f00565b935050604061227787828801611e4b565b925050606085013567ffffffffffffffff81111561229857612297611cb8565b5b6122a4878288016121ff565b91505092959194509250565b600080604083850312156122c7576122c6611cb3565b5b60006122d585828601611f00565b92505060206122e685828601611f00565b9150509250929050565b7f4e487b7100000000000000000000000000000000000000000000000000000000600052602260045260246000fd5b6000600282049050600182168061233757607f821691505b60208210810361234a576123496122f0565b5b50919050565b60006060820190506123656000830186611ebf565b6123726020830185611fb8565b61237f6040830184611ebf565b949350505050565b7f546f7572697374204944206e6f7420666f756e64000000000000000000000000600082015250565b60006123bd601483611d83565b91506123c882612387565b602082019050919050565b600060208201905081810360008301526123ec816123b0565b9050919050565b7f4e6f2061637469766520696e636964656e7420666f72207468697320746f757260008201527f6973740000000000000000000000000000000000000000000000000000000000602082015250565b600061244f602383611d83565b915061245a826123f3565b604082019050919050565b6000602082019050818103600083015261247e81612442565b9050919050565b7f41616468616172206861736820616c7265616479207265676973746572656400600082015250565b60006124bb601f83611d83565b91506124c682612485565b602082019050919050565b600060208201905081810360008301526124ea816124ae565b9050919050565b7f4e487b7100000000000000000000000000000000000000000000000000000000600052601160045260246000fd5b600061252b82611e2a565b91507fffffffffffffffffffffffffffffffffffffffffffffffffffffffffffffffff820361255d5761255c6124f1565b5b600182019050919050565b600081905092915050565b600061257e82611d78565b6125888185612568565b9350612598818560208601611d94565b80840191505092915050565b60006125b08285612573565b91506125bc8284612573565b91508190509392505050565b7f546f7572697374204944206d7573742062652076616c69640000000000000000600082015250565b60006125fe601883611d83565b9150612609826125c8565b602082019050919050565b6000602082019050818103600083015261262d816125f1565b9050919050565b7f496e636964656e7420616c72656164792061637469766520666f72207468697360008201527f20746f7572697374000000000000000000000000000000000000000000000000602082015250565b6000612690602883611d83565b915061269b82612634565b604082019050919050565b600060208201905081810360008301526126bf81612683565b9050919050565b600081519050919050565b600082825260208201905092915050565b60006126ed826126c6565b6126f781856126d1565b9350612707818560208601611d94565b61271081611dbe565b840191505092915050565b60006080820190506127306000830187611ebf565b61273d6020830186611ebf565b61274a6040830185611fb8565b818103606083015261275c81846126e2565b905095945050505050565b60008151905061277681611ce9565b92915050565b60006020828403121561279257612791611cb3565b5b60006127a084828501612767565b91505092915050565b7f4e487b7100000000000000000000000000000000000000000000000000000000600052601260045260246000fd5b60006040820190506127ed6000830185611ebf565b6127fa6020830184611fb8565b939250505056fea26469706673582212207b4e97df424135cfcb25cf9c36a02de09e59dec03c3aabb61b0ef17281c4469464736f6c63430008140033",
  "linkReferences": {},
  "deployedLinkReferences": {}
}