{
  "_format": "hh-sol-artifact-1",
  "contractName": "DigitalTouristID",
  "sourceName": "contracts/DigitalTouristID.sol",
  "abi": [
    {
      "inputs": [],
      "stateMutability": "nonpayable",
      "type": "constructor"
    },
    {
      "inputs": [
        {
          "internalType": "address",
          "name": "owner",
          "type": "address"
        }
      ],
      "name": "OwnableInvalidOwner",
      "type": "error"
    },
    {
      "inputs": [
        {
          "internalType": "address",
          "name": "account",
          "type": "address"
        }
      ],
      "name": "OwnableUnauthorizedAccount",
      "type": "error"
    },
    {
      "inputs": [],
      "name": "ReentrancyGuardReentrantCall",
      "type": "error"
    },
    {
      "anonymous": false,
      "inputs": [
        {
          "indexed": true,
          "internalType": "uint256",
          "name": "tokenId",
          "type": "uint256"
        },
        {
          "indexed": false,
          "internalType": "string",
          "name": "location",
          "type": "string"
        },
        {
          "indexed": false,
          "internalType": "uint256",
          "name": "timestamp",
          "type": "uint256"
        }
      ],
      "name": "EmergencyRecorded",
      "type": "event"
    },
    {
      "anonymous": false,
      "inputs": [
        {
          "indexed": true,
          "internalType": "uint256",
          "name": "tokenId",
          "type": "uint256"
        },
        {
          "indexed": false,
          "internalType": "string",
          "name": "touristId",
          "type": "string"
        },
        {
          "indexed": false,
          "internalType": "address",
          "name": "issuer",
          "type": "address"
        }
      ],
      "name": "IDCreated",
      "type": "event"
    },
    {
      "anonymous": false,
      "inputs": [
        {
          "indexed": true,
          "internalType": "uint256",
          "name": "tokenId",
          "type": "uint256"
        }
      ],
      "name": "IDDeactivated",
      "type": "event"
    },
    {
      "anonymous": false,
      "inputs": [
        {
          "indexed": true,
          "internalType": "address",
          "name": "previousOwner",
          "type": "address"
        },
        {
          "indexed": true,
          "internalType": "address",
          "name": "newOwner",
          "type": "address"
        }
      ],
      "name": "OwnershipTransferred",
      "type": "event"
    },
    {
      "anonymous": false,
      "inputs": [
        {
          "indexed": true,
          "internalType": "uint256",
          "name": "tokenId",
          "type": "uint256"
        },
        {
          "indexed": false,
          "internalType": "string",
          "name": "location",
          "type": "string"
        },
        {
          "indexed": false,
          "internalType": "uint256",
          "name": "timestamp",
          "type": "uint256"
        }
      ],
      "name": "TravelRecordAdded",
      "type": "event"
    },
    {
      "inputs": [
        {
          "internalType": "address",
          "name": "issuer",
          "type": "address"
        }
      ],
      "name": "addAuthorizedIssuer",
      "outputs": [],
      "stateMutability": "nonpayable",
      "type": "function"
    },
    {
      "inputs": [
        {
          "internalType": "string",
          "name": "_touristId",
          "type": "string"
        },
        {
          "internalType": "string",
          "name": "_location",
          "type": "string"
        },
        {
          "internalType": "string",
          "name": "_activity",
          "type": "string"
        }
      ],
      "name": "addTravelRecord",
      "outputs": [],
      "stateMutability": "nonpayable",
      "type": "function"
    },
    {
      "inputs": [
        {
          "internalType": "address",
          "name": "",
          "type": "address"
        }
      ],
      "name": "authorizedIssuers",
      "outputs": [
        {
          "internalType": "bool",
          "name": "",
          "type": "bool"
        }
      ],
      "stateMutability": "view",
      "type": "function"
    },
    {
      "inputs": [
        {
          "internalType": "string",
          "name": "_touristId",
          "type": "string"
        },
        {
          "internalType": "bytes32",
          "name": "_aadhaarHash",
          "type": "bytes32"
        },
        {
          "internalType": "string",
          "name": "_entryPoint",
          "type": "string"
        },
        {
          "internalType": "uint256",
          "name": "_validityDays",
          "type": "uint256"
        }
      ],
      "name": "createDigitalID",
      "outputs": [
        {
          "internalType": "uint256",
          "name": "",
          "type": "uint256"
        }
      ],
      "stateMutability": "nonpayable",
      "type": "function"
    },
    {
      "inputs": [
        {
          "internalType": "string",
          "name": "_touristId",
          "type": "string"
        }
      ],
      "name": "deactivateID",
      "outputs": [],
      "stateMutability": "nonpayable",
      "type": "function"
    },
    {
      "inputs": [],
      "name": "getTotalIDs",
      "outputs": [
        {
          "internalType": "uint256",
          "name": "",
          "type": "uint256"
        }
      ],
      "stateMutability": "view",
      "type": "function"
    },
    {
      "inputs": [
        {
          "internalType": "string",
          "name": "_touristId",
          "type": "string"
        }
      ],
      "name": "getTouristIDDetails",
      "outputs": [
        {
          "components": [
            {
              "internalType": "string",
              "name": "touristId",
              "type": "string"
            },
            {
              "internalType": "bytes32",
              "name": "aadhaarHash",
              "type": "bytes32"
            },
            {
              "internalType": "uint256",
              "name": "createdAt",
              "type": "uint256"
            },
            {
              "internalType": "uint256",
              "name": "expiryDate",
              "type": "uint256"
            },
            {
              "internalType": "bool",
              "name": "isActive",
              "type": "bool"
            },
            {
              "internalType": "string",
              "name": "entryPoint",
              "type": "string"
            },
            {
              "internalType": "address",
              "name": "issuer",
              "type": "address"
            }
          ],
          "internalType": "struct DigitalTouristID.TouristID",
          "name": "",
          "type": "tuple"
        }
      ],
      "stateMutability": "view",
      "type": "function"
    },
    {
      "inputs": [
        {
          "internalType": "string",
          "name": "_touristId",
          "type": "string"
        }
      ],
      "name": "getTravelHistory",
      "outputs": [
        {
          "components": [
            {
              "internalType": "uint256",
              "name": "timestamp",
              "type": "uint256"
            },
            {
              "internalType": "string",
              "name": "location",
              "type": "string"
            },
            {
              "internalType": "string",
              "name": "activity",
              "type": "string"
            },
            {
              "internalType": "bool",
              "name": "isEmergency",
              "type": "bool"
            }
          ],
          "internalType": "struct DigitalTouristID.TravelRecord[]",
          "name": "",
          "type": "tuple[]"
        }
      ],
      "stateMutability": "view",
      "type": "function"
    },
    {
      "inputs": [],
      "name": "owner",
      "outputs": [
        {
          "internalType": "address",
          "name": "",
          "type": "address"
        }
      ],
      "stateMutability": "view",
      "type": "function"
    },
    {
      "inputs": [
        {
          "internalType": "string",
          "name": "_touristId",
          "type": "string"
        },
        {
          "internalType": "string",
          "name": "_location",
          "type": "string"
        }
      ],
      "name": "recordEmergency",
      "outputs": [],
      "stateMutability": "nonpayable",
      "type": "function"
    },
    {
      "inputs": [
        {
          "internalType": "address",
          "name": "issuer",
          "type": "address"
        }
      ],
      "name": "removeAuthorizedIssuer",
      "outputs": [],
      "stateMutability": "nonpayable",
      "type": "function"
    },
    {
      "inputs": [],
      "name": "renounceOwnership",
      "outputs": [],
      "stateMutability": "nonpayable",
      "type": "function"
    },
    {
      "inputs": [
        {
          "internalType": "uint256",
          "name": "",
          "type": "uint256"
        }
      ],
      "name": "touristIDs",
      "outputs": [
        {
          "internalType": "string",
          "name": "touristId",
          "type": "string"
        },
        {
          "internalType": "bytes32",
          "name": "aadhaarHash",
          "type": "bytes32"
        },
        {
          "internalType": "uint256",
          "name": "createdAt",
          "type": "uint256"
        },
        {
          "internalType": "uint256",
          "name": "expiryDate",
          "type": "uint256"
        },
        {
          "internalType": "bool",
          "name": "isActive",
          "type": "bool"
        },
        {
          "internalType": "string",
          "name": "entryPoint",
          "type": "string"
        },
        {
          "internalType": "address",
          "name": "issuer",
          "type": "address"
        }
      ],
      "stateMutability": "view",
      "type": "function"
    },
    {
      "inputs": [
        {
          "internalType": "string",
          "name": "",
          "type": "string"
        }
      ],
      "name": "touristIdToTokenId",
      "outputs": [
        {
          "internalType": "uint256",
          "name": "",
          "type": "uint256"
        }
      ],
      "stateMutability": "view",
      "type": "function"
    },
    {
      "inputs": [
        {
          "internalType": "address",
          "name": "newOwner",
          "type": "address"
        }
      ],
      "name": "transferOwnership",
      "outputs": [],
      "stateMutability": "nonpayable",
      "type": "function"
    },
    {
      "inputs": [
        {
          "internalType": "uint256",
          "name": "",
          "type": "uint256"
        },
        {
          "internalType": "uint256",
          "name": "",
          "type": "uint256"
        }
      ],
      "name": "travelRecords",
      "outputs": [
        {
          "internalType": "uint256",
          "name": "timestamp",
          "type": "uint256"
        },
        {
          "internalType": "string",
          "name": "location",
          "type": "string"
        },
        {
          "internalType": "string",
          "name": "activity",
          "type": "string"
        },
        {
          "internalType": "bool",
          "name": "isEmergency",
          "type": "bool"
        }
      ],
      "stateMutability": "view",
      "type": "function"
    },
    {
      "inputs": [
        {
          "internalType": "string",
          "name": "_touristId",
          "type": "string"
        }
      ],
      "name": "verifyTouristID",
      "outputs": [
        {
          "internalType": "bool",
          "name": "isValid",
          "type": "bool"
        },
        {
          "internalType": "uint256",
          "name": "expiryDate",
          "type": "uint256"
        },
        {
          "internalType": "string",
          "name": "entryPoint",
          "type": "string"
        }
      ],
      "stateMutability": "view",
      "type": "function"
    }
  ],
  "bytecode": "0x60806040523480156200001157600080fd5b5033600073ffffffffffffffffffffffffffffffffffffffff168173ffffffffffffffffffffffffffffffffffffffff1603620000885760006040517f1e4fbdf70000000000000000000000000000000000000000000000000000000081526004016200007f919062000208565b60405180910390fd5b6200009981620000ff60201b60201c565b50600180819055506001600660003373ffffffffffffffffffffffffffffffffffffffff1673ffffffffffffffffffffffffffffffffffffffff16815260200190815260200160002060006101000a81548160ff02191690831515021790555062000225565b60008060009054906101000a900473ffffffffffffffffffffffffffffffffffffffff169050816000806101000a81548173ffffffffffffffffffffffffffffffffffffffff021916908373ffffffffffffffffffffffffffffffffffffffff1602179055508173ffffffffffffffffffffffffffffffffffffffff168173ffffffffffffffffffffffffffffffffffffffff167f8be0079c531659141344cd1fd0a4f28419497f9722a3daafe3b4186f6b6457e060405160405180910390a35050565b600073ffffffffffffffffffffffffffffffffffffffff82169050919050565b6000620001f082620001c3565b9050919050565b6200020281620001e3565b82525050565b60006020820190506200021f6000830184620001f7565b92915050565b612c9480620002356000396000f3fe608060405234801561001057600080fd5b506004361061010b5760003560e01c80639c2b1d21116100a2578063f2fde38b11610071578063f2fde38b146102bb578063f55294c9146102d7578063f731fa0f146102f3578063f9a8ea2614610323578063fc9402c5146103595761010b565b80639c2b1d2114610237578063ae33698814610253578063cf2a33e61461026f578063e95908db1461028b5761010b565b8063715018a6116100de578063715018a6146101be578063767cd05f146101c85780637e99f9fd146101fb5780638da5cb5b146102195761010b565b80630db056b71461011057806320de02601461012c578063552178711461015e5780636b43a3bc1461018e575b600080fd5b61012a60048036038101906101259190611cc2565b610389565b005b61014660048036038101906101419190611cc2565b610518565b60405161015593929190611dbe565b60405180910390f35b61017860048036038101906101739190611cc2565b610771565b6040516101859190611dfc565b60405180910390f35b6101a860048036038101906101a39190611cc2565b61079f565b6040516101b59190611f7c565b60405180910390f35b6101c66109e6565b005b6101e260048036038101906101dd9190611fca565b6109fa565b6040516101f2949392919061200a565b60405180910390f35b610203610b64565b6040516102109190611dfc565b60405180910390f35b610221610b6e565b60405161022e919061206c565b60405180910390f35b610251600480360381019061024c91906120b3565b610b97565b005b61026d600480360381019061026891906120e0565b610bfa565b005b61028960048036038101906102849190612158565b610ebe565b005b6102a560048036038101906102a0919061222b565b6111a7565b6040516102b29190611dfc565b60405180910390f35b6102d560048036038101906102d091906120b3565b6114c4565b005b6102f160048036038101906102ec91906120b3565b61154a565b005b61030d600480360381019061030891906120b3565b6115ad565b60405161031a91906122ca565b60405180910390f35b61033d600480360381019061033891906122e5565b6115cd565b6040516103509796959493929190612321565b60405180910390f35b610373600480360381019061036e9190611cc2565b61174c565b60405161038091906124ca565b60405180910390f35b600660003373ffffffffffffffffffffffffffffffffffffffff1673ffffffffffffffffffffffffffffffffffffffff16815260200190815260200160002060009054906101000a900460ff168061041357503373ffffffffffffffffffffffffffffffffffffffff166103fb610b6e565b73ffffffffffffffffffffffffffffffffffffffff16145b610452576040517f08c379a000000000000000000000000000000000000000000000000000000000815260040161044990612538565b60405180910390fd5b60006005826040516104649190612594565b9081526020016040518091039020549050600081036104b8576040517f08c379a00000000000000000000000000000000000000000000000000000000081526004016104af906125f7565b60405180910390fd5b60006003600083815260200190815260200160002060040160006101000a81548160ff021916908315150217905550807fd13a3fe87e20364852910ef677df51f59e843df0dc53fa5449acde0af7ec822d60405160405180910390a25050565b6000806060600060058560405161052f9190612594565b90815260200160405180910390205490506000810361056757600080604051806020016040528060008152509350935093505061076a565b6000600360008381526020019081526020016000206040518060e001604052908160008201805461059790612646565b80601f01602080910402602001604051908101604052809291908181526020018280546105c390612646565b80156106105780601f106105e557610100808354040283529160200191610610565b820191906000526020600020905b8154815290600101906020018083116105f357829003601f168201915b505050505081526020016001820154815260200160028201548152602001600382015481526020016004820160009054906101000a900460ff1615151515815260200160058201805461066290612646565b80601f016020809104026020016040519081016040528092919081815260200182805461068e90612646565b80156106db5780601f106106b0576101008083540402835291602001916106db565b820191906000526020600020905b8154815290600101906020018083116106be57829003601f168201915b505050505081526020016006820160009054906101000a900473ffffffffffffffffffffffffffffffffffffffff1673ffffffffffffffffffffffffffffffffffffffff1673ffffffffffffffffffffffffffffffffffffffff16815250509050600081608001518015610753575081606001514211155b90508082606001518360a001519550955095505050505b9193909250565b6005818051602081018201805184825260208301602085012081835280955050505050506000915090505481565b6107a7611b10565b60006005836040516107b99190612594565b90815260200160405180910390205490506000810361080d576040517f08c379a0000000000000000000000000000000000000000000000000000000008152600401610804906125f7565b60405180910390fd5b600360008281526020019081526020016000206040518060e001604052908160008201805461083b90612646565b80601f016020809104026020016040519081016040528092919081815260200182805461086790612646565b80156108b45780601f10610889576101008083540402835291602001916108b4565b820191906000526020600020905b81548152906001019060200180831161089757829003601f168201915b505050505081526020016001820154815260200160028201548152602001600382015481526020016004820160009054906101000a900460ff1615151515815260200160058201805461090690612646565b80601f016020809104026020016040519081016040528092919081815260200182805461093290612646565b801561097f5780601f106109545761010080835404028352916020019161097f565b820191906000526020600020905b81548152906001019060200180831161096257829003601f168201915b505050505081526020016006820160009054906101000a900473ffffffffffffffffffffffffffffffffffffffff1673ffffffffffffffffffffffffffffffffffffffff1673ffffffffffffffffffffffffffffffffffffffff1681525050915050919050565b6109ee61196e565b6109f860006119f5565b565b60046020528160005260406000208181548110610a1657600080fd5b906000526020600020906004020160009150915050806000015490806001018054610a4090612646565b80601f0160208091040260200160405190810160405280929190818152602001828054610a6c90612646565b8015610ab95780601f10610a8e57610100808354040283529160200191610ab9565b820191906000526020600020905b815481529060010190602001808311610a9c57829003601f168201915b505050505090806002018054610ace90612646565b80601f0160208091040260200160405190810160405280929190818152602001828054610afa90612646565b8015610b475780601f10610b1c57610100808354040283529160200191610b47565b820191906000526020600020905b815481529060010190602001808311610b2a57829003601f168201915b5050505050908060030160009054906101000a900460ff16905084565b6000600254905090565b60008060009054906101000a900473ffffffffffffffffffffffffffffffffffffffff16905090565b610b9f61196e565b6001600660008373ffffffffffffffffffffffffffffffffffffffff1673ffffffffffffffffffffffffffffffffffffffff16815260200190815260200160002060006101000a81548160ff02191690831515021790555050565b600660003373ffffffffffffffffffffffffffffffffffffffff1673ffffffffffffffffffffffffffffffffffffffff16815260200190815260200160002060009054906101000a900460ff1680610c8457503373ffffffffffffffffffffffffffffffffffffffff16610c6c610b6e565b73ffffffffffffffffffffffffffffffffffffffff16145b610cc3576040517f08c379a0000000000000000000000000000000000000000000000000000000008152600401610cba90612538565b60405180910390fd5b6000600583604051610cd59190612594565b908152602001604051809103902054905060008103610d29576040517f08c379a0000000000000000000000000000000000000000000000000000000008152600401610d20906125f7565b60405180910390fd5b6003600082815260200190815260200160002060040160009054906101000a900460ff16610d8c576040517f08c379a0000000000000000000000000000000000000000000000000000000008152600401610d83906126c3565b60405180910390fd5b600060405180608001604052804281526020018481526020016040518060400160405280600981526020017f454d455247454e43590000000000000000000000000000000000000000000000815250815260200160011515815250905060046000838152602001908152602001600020819080600181540180825580915050600190039060005260206000209060040201600090919091909150600082015181600001556020820151816001019081610e45919061288f565b506040820151816002019081610e5b919061288f565b5060608201518160030160006101000a81548160ff0219169083151502179055505050817fcadbfea1b997c4f52c906ae167c9da03036b30acab9463dcd25e8f3f7fad33c78442604051610eb0929190612961565b60405180910390a250505050565b600660003373ffffffffffffffffffffffffffffffffffffffff1673ffffffffffffffffffffffffffffffffffffffff16815260200190815260200160002060009054906101000a900460ff1680610f4857503373ffffffffffffffffffffffffffffffffffffffff16610f30610b6e565b73ffffffffffffffffffffffffffffffffffffffff16145b610f87576040517f08c379a0000000000000000000000000000000000000000000000000000000008152600401610f7e90612538565b60405180910390fd5b6000600584604051610f999190612594565b908152602001604051809103902054905060008103610fed576040517f08c379a0000000000000000000000000000000000000000000000000000000008152600401610fe4906125f7565b60405180910390fd5b6003600082815260200190815260200160002060040160009054906101000a900460ff16611050576040517f08c379a0000000000000000000000000000000000000000000000000000000008152600401611047906126c3565b60405180910390fd5b60036000828152602001908152602001600020600301544211156110a9576040517f08c379a00000000000000000000000000000000000000000000000000000000081526004016110a0906129dd565b60405180910390fd5b600060405180608001604052804281526020018581526020018481526020016000151581525090506004600083815260200190815260200160002081908060018154018082558091505060019003906000526020600020906004020160009091909190915060008201518160000155602082015181600101908161112d919061288f565b506040820151816002019081611143919061288f565b5060608201518160030160006101000a81548160ff0219169083151502179055505050817f67bb67865815ed3009c4f8b16362c9ceaad289dd598485610115b979b0c8ba408542604051611198929190612961565b60405180910390a25050505050565b6000600660003373ffffffffffffffffffffffffffffffffffffffff1673ffffffffffffffffffffffffffffffffffffffff16815260200190815260200160002060009054906101000a900460ff168061123357503373ffffffffffffffffffffffffffffffffffffffff1661121b610b6e565b73ffffffffffffffffffffffffffffffffffffffff16145b611272576040517f08c379a000000000000000000000000000000000000000000000000000000000815260040161126990612538565b60405180910390fd5b61127a611ab9565b60008551116112be576040517f08c379a00000000000000000000000000000000000000000000000000000000081526004016112b590612a49565b60405180910390fd5b6000801b8403611303576040517f08c379a00000000000000000000000000000000000000000000000000000000081526004016112fa90612ab5565b60405180910390fd5b60006005866040516113159190612594565b90815260200160405180910390205414611364576040517f08c379a000000000000000000000000000000000000000000000000000000000815260040161135b90612b21565b60405180910390fd5b6002600081548092919061137790612b70565b9190505550600060025490506000600360008381526020019081526020016000209050868160000190816113ab919061288f565b5085816001018190555042816002018190555062015180846113cd9190612bb8565b426113d89190612bfa565b816003018190555060018160040160006101000a81548160ff0219169083151502179055508481600501908161140e919061288f565b50338160060160006101000a81548173ffffffffffffffffffffffffffffffffffffffff021916908373ffffffffffffffffffffffffffffffffffffffff160217905550816005886040516114639190612594565b908152602001604051809103902081905550817f69e7207fd93352cf9b552b5501aff7766bc30fde398d4d4af6d5dda84950457888336040516114a7929190612c2e565b60405180910390a281925050506114bc611aff565b949350505050565b6114cc61196e565b600073ffffffffffffffffffffffffffffffffffffffff168173ffffffffffffffffffffffffffffffffffffffff160361153e5760006040517f1e4fbdf7000000000000000000000000000000000000000000000000000000008152600401611535919061206c565b60405180910390fd5b611547816119f5565b50565b61155261196e565b6000600660008373ffffffffffffffffffffffffffffffffffffffff1673ffffffffffffffffffffffffffffffffffffffff16815260200190815260200160002060006101000a81548160ff02191690831515021790555050565b60066020528060005260406000206000915054906101000a900460ff1681565b60036020528060005260406000206000915090508060000180546115f090612646565b80601f016020809104026020016040519081016040528092919081815260200182805461161c90612646565b80156116695780601f1061163e57610100808354040283529160200191611669565b820191906000526020600020905b81548152906001019060200180831161164c57829003601f168201915b5050505050908060010154908060020154908060030154908060040160009054906101000a900460ff16908060050180546116a390612646565b80601f01602080910402602001604051908101604052809291908181526020018280546116cf90612646565b801561171c5780601f106116f15761010080835404028352916020019161171c565b820191906000526020600020905b8154815290600101906020018083116116ff57829003601f168201915b5050505050908060060160009054906101000a900473ffffffffffffffffffffffffffffffffffffffff16905087565b606060006005836040516117609190612594565b9081526020016040518091039020549050600081036117b4576040517f08c379a00000000000000000000000000000000000000000000000000000000081526004016117ab906125f7565b60405180910390fd5b60046000828152602001908152602001600020805480602002602001604051908101604052809291908181526020016000905b8282101561196257838290600052602060002090600402016040518060800160405290816000820154815260200160018201805461182490612646565b80601f016020809104026020016040519081016040528092919081815260200182805461185090612646565b801561189d5780601f106118725761010080835404028352916020019161189d565b820191906000526020600020905b81548152906001019060200180831161188057829003601f168201915b505050505081526020016002820180546118b690612646565b80601f01602080910402602001604051908101604052809291908181526020018280546118e290612646565b801561192f5780601f106119045761010080835404028352916020019161192f565b820191906000526020600020905b81548152906001019060200180831161191257829003601f168201915b505050505081526020016003820160009054906101000a900460ff161515151581525050815260200190600101906117e7565b50505050915050919050565b611976611b08565b73ffffffffffffffffffffffffffffffffffffffff16611994610b6e565b73ffffffffffffffffffffffffffffffffffffffff16146119f3576119b7611b08565b6040517f118cdaa70000000000000000000000000000000000000000000000000000000081526004016119ea919061206c565b60405180910390fd5b565b60008060009054906101000a900473ffffffffffffffffffffffffffffffffffffffff169050816000806101000a81548173ffffffffffffffffffffffffffffffffffffffff021916908373ffffffffffffffffffffffffffffffffffffffff1602179055508173ffffffffffffffffffffffffffffffffffffffff168173ffffffffffffffffffffffffffffffffffffffff167f8be0079c531659141344cd1fd0a4f28419497f9722a3daafe3b4186f6b6457e060405160405180910390a35050565b600260015403611af5576040517f3ee5aeb500000000000000000000000000000000000000000000000000000000815260040160405180910390fd5b6002600181905550565b60018081905550565b600033905090565b6040518060e001604052806060815260200160008019168152602001600081526020016000815260200160001515815260200160608152602001600073ffffffffffffffffffffffffffffffffffffffff1681525090565b6000604051905090565b600080fd5b600080fd5b600080fd5b600080fd5b6000601f19601f8301169050919050565b7f4e487b7100000000000000000000000000000000000000000000000000000000600052604160045260246000fd5b611bcf82611b86565b810181811067ffffffffffffffff82111715611bee57611bed611b97565b5b80604052505050565b6000611c01611b68565b9050611c0d8282611bc6565b919050565b600067ffffffffffffffff821115611c2d57611c2c611b97565b5b611c3682611b86565b9050602081019050919050565b82818337600083830152505050565b6000611c65611c6084611c12565b611bf7565b905082815260208101848484011115611c8157611c80611b81565b5b611c8c848285611c43565b509392505050565b600082601f830112611ca957611ca8611b7c565b5b8135611cb9848260208601611c52565b91505092915050565b600060208284031215611cd857611cd7611b72565b5b600082013567ffffffffffffffff811115611cf657611cf5611b77565b5b611d0284828501611c94565b91505092915050565b60008115159050919050565b611d2081611d0b565b82525050565b6000819050919050565b611d3981611d26565b82525050565b600081519050919050565b600082825260208201905092915050565b60005b83811015611d79578082015181840152602081019050611d5e565b60008484015250505050565b6000611d9082611d3f565b611d9a8185611d4a565b9350611daa818560208601611d5b565b611db381611b86565b840191505092915050565b6000606082019050611dd36000830186611d17565b611de06020830185611d30565b8181036040830152611df28184611d85565b9050949350505050565b6000602082019050611e116000830184611d30565b92915050565b600082825260208201905092915050565b6000611e3382611d3f565b611e3d8185611e17565b9350611e4d818560208601611d5b565b611e5681611b86565b840191505092915050565b6000819050919050565b611e7481611e61565b82525050565b611e8381611d26565b82525050565b611e9281611d0b565b82525050565b600073ffffffffffffffffffffffffffffffffffffffff82169050919050565b6000611ec382611e98565b9050919050565b611ed381611eb8565b82525050565b600060e0830160008301518482036000860152611ef68282611e28565b9150506020830151611f0b6020860182611e6b565b506040830151611f1e6040860182611e7a565b506060830151611f316060860182611e7a565b506080830151611f446080860182611e89565b5060a083015184820360a0860152611f5c8282611e28565b91505060c0830151611f7160c0860182611eca565b508091505092915050565b60006020820190508181036000830152611f968184611ed9565b905092915050565b611fa781611d26565b8114611fb257600080fd5b50565b600081359050611fc481611f9e565b92915050565b60008060408385031215611fe157611fe0611b72565b5b6000611fef85828601611fb5565b925050602061200085828601611fb5565b9150509250929050565b600060808201905061201f6000830187611d30565b81810360208301526120318186611d85565b905081810360408301526120458185611d85565b90506120546060830184611d17565b95945050505050565b61206681611eb8565b82525050565b6000602082019050612081600083018461205d565b92915050565b61209081611eb8565b811461209b57600080fd5b50565b6000813590506120ad81612087565b92915050565b6000602082840312156120c9576120c8611b72565b5b60006120d78482850161209e565b91505092915050565b600080604083850312156120f7576120f6611b72565b5b600083013567ffffffffffffffff81111561211557612114611b77565b5b61212185828601611c94565b925050602083013567ffffffffffffffff81111561214257612141611b77565b5b61214e85828601611c94565b9150509250929050565b60008060006060848603121561217157612170611b72565b5b600084013567ffffffffffffffff81111561218f5761218e611b77565b5b61219b86828701611c94565b935050602084013567ffffffffffffffff8111156121bc576121bb611b77565b5b6121c886828701611c94565b925050604084013567ffffffffffffffff8111156121e9576121e8611b77565b5b6121f586828701611c94565b9150509250925092565b61220881611e61565b811461221357600080fd5b50565b600081359050612225816121ff565b92915050565b6000806000806080858703121561224557612244611b72565b5b600085013567ffffffffffffffff81111561226357612262611b77565b5b61226f87828801611c94565b945050602061228087828801612216565b935050604085013567ffffffffffffffff8111156122a1576122a0611b77565b5b6122ad87828801611c94565b92505060606122be87828801611fb5565b91505092959194509250565b60006020820190506122df6000830184611d17565b92915050565b6000602082840312156122fb576122fa611b72565b5b600061230984828501611fb5565b91505092915050565b61231b81611e61565b82525050565b600060e082019050818103600083015261233b818a611d85565b905061234a6020830189612312565b6123576040830188611d30565b6123646060830187611d30565b6123716080830186611d17565b81810360a08301526123838185611d85565b905061239260c083018461205d565b98975050505050505050565b600081519050919050565b600082825260208201905092915050565b6000819050602082019050919050565b60006080830160008301516123e26000860182611e7a565b50602083015184820360208601526123fa8282611e28565b915050604083015184820360408601526124148282611e28565b91505060608301516124296060860182611e89565b508091505092915050565b600061244083836123ca565b905092915050565b6000602082019050919050565b60006124608261239e565b61246a81856123a9565b93508360208202850161247c856123ba565b8060005b858110156124b857848403895281516124998582612434565b94506124a483612448565b925060208a01995050600181019050612480565b50829750879550505050505092915050565b600060208201905081810360008301526124e48184612455565b905092915050565b7f4e6f7420617574686f72697a6564000000000000000000000000000000000000600082015250565b6000612522600e83611d4a565b915061252d826124ec565b602082019050919050565b6000602082019050818103600083015261255181612515565b9050919050565b600081905092915050565b600061256e82611d3f565b6125788185612558565b9350612588818560208601611d5b565b80840191505092915050565b60006125a08284612563565b915081905092915050565b7f546f7572697374204944206e6f7420666f756e64000000000000000000000000600082015250565b60006125e1601483611d4a565b91506125ec826125ab565b602082019050919050565b60006020820190508181036000830152612610816125d4565b9050919050565b7f4e487b7100000000000000000000000000000000000000000000000000000000600052602260045260246000fd5b6000600282049050600182168061265e57607f821691505b60208210810361267157612670612617565b5b50919050565b7f546f7572697374204944206e6f74206163746976650000000000000000000000600082015250565b60006126ad601583611d4a565b91506126b882612677565b602082019050919050565b600060208201905081810360008301526126dc816126a0565b9050919050565b60008190508160005260206000209050919050565b60006020601f8301049050919050565b600082821b905092915050565b6000600883026127457fffffffffffffffffffffffffffffffffffffffffffffffffffffffffffffffff82612708565b61274f8683612708565b95508019841693508086168417925050509392505050565b6000819050919050565b600061278c61278761278284611d26565b612767565b611d26565b9050919050565b6000819050919050565b6127a683612771565b6127ba6127b282612793565b848454612715565b825550505050565b600090565b6127cf6127c2565b6127da81848461279d565b505050565b5b818110156127fe576127f36000826127c7565b6001810190506127e0565b5050565b601f82111561284357612814816126e3565b61281d846126f8565b8101602085101561282c578190505b612840612838856126f8565b8301826127df565b50505b505050565b600082821c905092915050565b600061286660001984600802612848565b1980831691505092915050565b600061287f8383612855565b9150826002028217905092915050565b61289882611d3f565b67ffffffffffffffff8111156128b1576128b0611b97565b5b6128bb8254612646565b6128c6828285612802565b600060209050601f8311600181146128f957600084156128e7578287015190505b6128f18582612873565b865550612959565b601f198416612907866126e3565b60005b8281101561292f5784890151825560018201915060208501945060208101905061290a565b8683101561294c5784890151612948601f891682612855565b8355505b6001600288020188555050505b505050505050565b6000604082019050818103600083015261297b8185611d85565b905061298a6020830184611d30565b9392505050565b7f546f757269737420494420657870697265640000000000000000000000000000600082015250565b60006129c7601283611d4a565b91506129d282612991565b602082019050919050565b600060208201905081810360008301526129f6816129ba565b9050919050565b7f546f75726973742049442063616e6e6f7420626520656d707479000000000000600082015250565b6000612a33601a83611d4a565b9150612a3e826129fd565b602082019050919050565b60006020820190508181036000830152612a6281612a26565b9050919050565b7f496e76616c696420416164686161722068617368000000000000000000000000600082015250565b6000612a9f601483611d4a565b9150612aaa82612a69565b602082019050919050565b60006020820190508181036000830152612ace81612a92565b9050919050565b7f546f757269737420494420616c72656164792065786973747300000000000000600082015250565b6000612b0b601983611d4a565b9150612b1682612ad5565b602082019050919050565b60006020820190508181036000830152612b3a81612afe565b9050919050565b7f4e487b7100000000000000000000000000000000000000000000000000000000600052601160045260246000fd5b6000612b7b82611d26565b91507fffffffffffffffffffffffffffffffffffffffffffffffffffffffffffffffff8203612bad57612bac612b41565b5b600182019050919050565b6000612bc382611d26565b9150612bce83611d26565b9250828202612bdc81611d26565b91508282048414831517612bf357612bf2612b41565b5b5092915050565b6000612c0582611d26565b9150612c1083611d26565b9250828201905080821115612c2857612c27612b41565b5b92915050565b60006040820190508181036000830152612c488185611d85565b9050612c57602083018461205d565b939250505056fea264697066735822122025e2b41b9df774b445b43ac00cb1ede52bf723c45b53a81578ddb3ff34b66d7664736f6c63430008140033",
  "linkReferences": {},
  "deployedLinkReferences": {}
}